{
  "_format": "hh-sol-artifact-1",
  "contractName": "Escrow",
  "sourceName": "contracts/Escrow.sol",
  "abi": [
    {
      "inputs": [
        {
          "internalType": "address",
          "name": "_arbiter",
          "type": "address"
        },
        {
          "internalType": "address",
          "name": "_beneficiary",
          "type": "address"
        }
      ],
      "stateMutability": "payable",
      "type": "constructor"
    },
    {
      "anonymous": false,
      "inputs": [
        {
          "indexed": false,
          "internalType": "uint256",
          "name": "",
          "type": "uint256"
        }
      ],
      "name": "Approved",
      "type": "event"
    },
    {
      "inputs": [],
      "name": "approve",
      "outputs": [],
      "stateMutability": "nonpayable",
      "type": "function"
    },
    {
      "inputs": [],
      "name": "arbiter",
      "outputs": [
        {
          "internalType": "address",
          "name": "",
          "type": "address"
        }
      ],
      "stateMutability": "view",
      "type": "function"
    },
    {
      "inputs": [],
      "name": "beneficiary",
      "outputs": [
        {
          "internalType": "address",
          "name": "",
          "type": "address"
        }
      ],
      "stateMutability": "view",
      "type": "function"
    },
    {
      "inputs": [],
      "name": "cancelEscrow",
      "outputs": [],
      "stateMutability": "nonpayable",
      "type": "function"
    },
    {
      "inputs": [],
      "name": "contractMoney",
      "outputs": [
        {
          "internalType": "uint256",
          "name": "",
          "type": "uint256"
        }
      ],
      "stateMutability": "view",
      "type": "function"
    },
    {
      "inputs": [],
      "name": "depositor",
      "outputs": [
        {
          "internalType": "address",
          "name": "",
          "type": "address"
        }
      ],
      "stateMutability": "view",
      "type": "function"
    },
    {
      "inputs": [],
      "name": "isApproved",
      "outputs": [
        {
          "internalType": "bool",
          "name": "",
          "type": "bool"
        }
      ],
      "stateMutability": "view",
      "type": "function"
    },
    {
      "inputs": [],
      "name": "isCancelled",
      "outputs": [
        {
          "internalType": "bool",
          "name": "",
          "type": "bool"
        }
      ],
      "stateMutability": "view",
      "type": "function"
    },
    {
      "inputs": [],
      "name": "startOperating",
      "outputs": [],
      "stateMutability": "nonpayable",
      "type": "function"
    },
    {
      "inputs": [],
      "name": "statusEscrow",
      "outputs": [
        {
          "internalType": "enum Escrow.escrowStatus",
          "name": "",
          "type": "uint8"
        }
      ],
      "stateMutability": "view",
      "type": "function"
    },
    {
      "inputs": [],
      "name": "withdrawMoney",
      "outputs": [],
      "stateMutability": "payable",
      "type": "function"
    }
  ],
  "bytecode": "0x6080604052604051610d66380380610d668339818101604052810190610025919061017c565b816000806101000a81548173ffffffffffffffffffffffffffffffffffffffff021916908373ffffffffffffffffffffffffffffffffffffffff16021790555080600160006101000a81548173ffffffffffffffffffffffffffffffffffffffff021916908373ffffffffffffffffffffffffffffffffffffffff16021790555033600260006101000a81548173ffffffffffffffffffffffffffffffffffffffff021916908373ffffffffffffffffffffffffffffffffffffffff1602179055506000600260166101000a81548160ff0219169083600381111561010d5761010c6101bc565b5b021790555050506101eb565b600080fd5b600073ffffffffffffffffffffffffffffffffffffffff82169050919050565b60006101498261011e565b9050919050565b6101598161013e565b811461016457600080fd5b50565b60008151905061017681610150565b92915050565b6000806040838503121561019357610192610119565b5b60006101a185828601610167565b92505060206101b285828601610167565b9150509250929050565b7f4e487b7100000000000000000000000000000000000000000000000000000000600052602160045260246000fd5b610b6c806101fa6000396000f3fe60806040526004361061009c5760003560e01c8063ac44600211610064578063ac44600214610164578063c7c4ff461461016e578063d45b000714610199578063d7edcaf5146101b0578063e9d94d9b146101db578063fe25e00a146101f25761009c565b806312424e3f146100a157806328f371aa146100b857806338af3eed146100e35780633db732e81461010e57806395ee122114610139575b600080fd5b3480156100ad57600080fd5b506100b661021d565b005b3480156100c457600080fd5b506100cd6103ad565b6040516100da919061075a565b60405180910390f35b3480156100ef57600080fd5b506100f86103c0565b60405161010591906107b6565b60405180910390f35b34801561011a57600080fd5b506101236103e6565b6040516101309190610848565b60405180910390f35b34801561014557600080fd5b5061014e6103f9565b60405161015b919061075a565b60405180910390f35b61016c61040c565b005b34801561017a57600080fd5b50610183610575565b60405161019091906107b6565b60405180910390f35b3480156101a557600080fd5b506101ae61059b565b005b3480156101bc57600080fd5b506101c5610656565b6040516101d2919061087c565b60405180910390f35b3480156101e757600080fd5b506101f061065e565b005b3480156101fe57600080fd5b5061020761071b565b60405161021491906107b6565b60405180910390f35b60008054906101000a900473ffffffffffffffffffffffffffffffffffffffff1673ffffffffffffffffffffffffffffffffffffffff163373ffffffffffffffffffffffffffffffffffffffff161461027557600080fd5b60004790506000600160009054906101000a900473ffffffffffffffffffffffffffffffffffffffff1673ffffffffffffffffffffffffffffffffffffffff16826040516102c2906108c8565b60006040518083038185875af1925050503d80600081146102ff576040519150601f19603f3d011682016040523d82523d6000602084013e610304565b606091505b5050905080610348576040517f08c379a000000000000000000000000000000000000000000000000000000000815260040161033f9061093a565b60405180910390fd5b7f3ad93af63cb7967b23e4fb500b7d7d28b07516325dcf341f88bebf959d82c1cb82604051610377919061087c565b60405180910390a160028060166101000a81548160ff021916908360038111156103a4576103a36107d1565b5b02179055505050565b600260149054906101000a900460ff1681565b600160009054906101000a900473ffffffffffffffffffffffffffffffffffffffff1681565b600260169054906101000a900460ff1681565b600260159054906101000a900460ff1681565b60038081111561041f5761041e6107d1565b5b600260169054906101000a900460ff166003811115610441576104406107d1565b5b14801561049b5750600260009054906101000a900473ffffffffffffffffffffffffffffffffffffffff1673ffffffffffffffffffffffffffffffffffffffff163373ffffffffffffffffffffffffffffffffffffffff16145b6104da576040517f08c379a00000000000000000000000000000000000000000000000000000000081526004016104d1906109cc565b60405180910390fd5b6000600260009054906101000a900473ffffffffffffffffffffffffffffffffffffffff1673ffffffffffffffffffffffffffffffffffffffff1647604051610522906108c8565b60006040518083038185875af1925050503d806000811461055f576040519150601f19603f3d011682016040523d82523d6000602084013e610564565b606091505b505090508061057257600080fd5b50565b600260009054906101000a900473ffffffffffffffffffffffffffffffffffffffff1681565b60008054906101000a900473ffffffffffffffffffffffffffffffffffffffff1673ffffffffffffffffffffffffffffffffffffffff163373ffffffffffffffffffffffffffffffffffffffff1614610629576040517f08c379a000000000000000000000000000000000000000000000000000000000815260040161062090610a84565b60405180910390fd5b6003600260166101000a81548160ff0219169083600381111561064f5761064e6107d1565b5b0217905550565b600047905090565b600160009054906101000a900473ffffffffffffffffffffffffffffffffffffffff1673ffffffffffffffffffffffffffffffffffffffff163373ffffffffffffffffffffffffffffffffffffffff16146106ee576040517f08c379a00000000000000000000000000000000000000000000000000000000081526004016106e590610b16565b60405180910390fd5b6001600260166101000a81548160ff02191690836003811115610714576107136107d1565b5b0217905550565b60008054906101000a900473ffffffffffffffffffffffffffffffffffffffff1681565b60008115159050919050565b6107548161073f565b82525050565b600060208201905061076f600083018461074b565b92915050565b600073ffffffffffffffffffffffffffffffffffffffff82169050919050565b60006107a082610775565b9050919050565b6107b081610795565b82525050565b60006020820190506107cb60008301846107a7565b92915050565b7f4e487b7100000000000000000000000000000000000000000000000000000000600052602160045260246000fd5b60048110610811576108106107d1565b5b50565b600081905061082282610800565b919050565b600061083282610814565b9050919050565b61084281610827565b82525050565b600060208201905061085d6000830184610839565b92915050565b6000819050919050565b61087681610863565b82525050565b6000602082019050610891600083018461086d565b92915050565b600081905092915050565b50565b60006108b2600083610897565b91506108bd826108a2565b600082019050919050565b60006108d3826108a5565b9150819050919050565b600082825260208201905092915050565b7f4661696c656420746f2073656e64204574686572000000000000000000000000600082015250565b60006109246014836108dd565b915061092f826108ee565b602082019050919050565b6000602082019050818103600083015261095381610917565b9050919050565b7f5468652062656e656669636961727920686173206e6f742066756c66696c6c6560008201527f64207468652063697263756d7374616e63657300000000000000000000000000602082015250565b60006109b66033836108dd565b91506109c18261095a565b604082019050919050565b600060208201905081810360008301526109e5816109a9565b9050919050565b7f436f6e747261637420686173206265656e2063616e63656c6c6564206173207460008201527f68652062656e656669636961727920686173206e6f742066756c66696c6c656460208201527f2074686520736572766963657300000000000000000000000000000000000000604082015250565b6000610a6e604d836108dd565b9150610a79826109ec565b606082019050919050565b60006020820190508181036000830152610a9d81610a61565b9050919050565b7f4f6e6c79207468652062656e65666963696172792063616e2063616c6c20746860008201527f69732066756e6374696f6e210000000000000000000000000000000000000000602082015250565b6000610b00602c836108dd565b9150610b0b82610aa4565b604082019050919050565b60006020820190508181036000830152610b2f81610af3565b905091905056fea2646970667358221220b07e5df6a51bc2411a7913ade69d266e60590713e10438d1d9c40c1036027d3c64736f6c63430008110033",
  "linkReferences": {},
  "deployedLinkReferences": {}
}